:03000000020C7B74
:0C0C7B00787FE4F6D8FD758139020CC2C8
:100FB30028EE32A2E4A121EA20A06025392631716E
:010FC300FF2E
:0D0FD2000832C0F9A4B0999282F8012703FB
:0C0FE000C2AF53E71843E70143E780224B
:090FF70053E77FE4F5E6D2AF22D6
:0B0FEC00120FE075E64675E6B9002222
:100F7000AD07AC068CE3EDF5E453E5F843E501126B
:080F80000FEC120FF7AFE222A3
:100F9E00EE54FEFEF5E3E4F5E453E5F843E5031203
:050FAE000FEC020FF73B
:100F3C00AB07AA06120F9E8AE3EBF5E453E5F843E0
:0A0F4C00E5028DE2120FEC020FF730
:100EFC00E4FDFCC3ED9FEC9E5015E4FBFA0BBB002C
:0F0F0C00010AEB64784A70F50DBD00010C80E41A
:010F1B0022B3
:100D0700E47B0AFAF9F8AF2EAE2DAD2CAC2B120E00
:100D17000C74B32BF582740F3AF583E493F532E440
:100D27007B0AFAF9F8AF2EAE2DAD2CAC2B120E0CB8
:100D3700E47B0AFAF9F8120E0C74B32BF582740FE0
:100D47003AF583E493F533E47B64FAF9F8AF2EAE12
:100D57002DAD2CAC2B120E0CE47B0AFAF9F8120E0F
:100D67000C74B32BF582740F3AF583E49354DFF5D3
:020D7700342224
:100F1C007F007E20120F9EAD267E20120F3CE52511
:100F2C00FD0F7E20120F3CAD287F587E20020F3C17
:100ED9007F017E20120F707525008F26E526752665
:100EE90000F5257F00120F70EF42267F58120F7010
:030EF9008F28221D
:100F8800120ED9E5286401600C75250075263275A6
:060F98002801120F1C22CB
:100DC800752F1443A007E5A05407640760327F011C
:100DD8007E00120EFCE5A0540764076026E5216436
:100DE800017020F521E5A0540724FD600F24FE6062
:100DF8000714700F752F0322752F0222752F0122F9
:030E080075210150
:010E0B0022C4
:100B0C00AF2F7E00EF6401701C0529C3E529940208
:100B1C00748094804006E4F529752703E529640167
:100B2C007003752704E52964016003020BD7EF6499
:100B3C00024E70170526E52670020525D39490E524
:100B4C002594014006752501752690E52F640370E8
:100B5C0019E526152670021525D3E5269401E52501
:100B6C0094005006752500752601AE25AF267C0035
:100B7C007D0A1209C574B32DF582740F3CF583E41C
:100B8C0093F532AE25AF267C007D0A1209C57C0098
:100B9C007D0A1209C574B32DF582740F3CF583E4FC
:100BAC0093F533AE25AF267C007D641209C57C001D
:100BBC007D0A1209C574B32DF582740F3CF583E4DC
:0C0BCC009354DFF534753560120F1C22C5
:100EAE00AE25AF26E4FCFDAB2EAA2DA92CA82BD384
:100EBE00120A2850100522C3E522940274809480F1
:0A0ECE004008C2A322E4F522D2A3DB
:010ED80022F7
:100E5000EF14601014601614601C24037020C2B4D8
:100E6000D2B58004D2B4C2B5D2B6D2B722D2B4D2EF
:0F0E7000B5C2B6D2B722D2B4D2B5D2B6C2B7226B
:100F56000523E523C395274003E4F523AF23120EAB
:090F66005074322523F8E6F590E1
:010F6F00225F
:06100000000000000022C8
:100BD800D2B2121000C2B2E4F58CF58AC28C30B3DE
:100BE800FDD28C30B338AF8CEFFEAD8A7C00E42D9B
:100BF800F531EC3EF530FEAF31E4FD7B407A9CF9EF
:100C0800F8C3120A285012C28C752A02E4752E788D
:100C1800752D03F52CF52B8005752A0180C5E52A6D
:100C28006401704EC28C85312E85302DF52CF52B44
:100C3800AF2EAE2DAD2CAC2BEC1209067B967A4369
:100C4800798B783C1208001209448F2E8E2D8D2C3A
:100C58008C2BE47FF47E01FDFCAB2EAA2DA92CA8D9
:100C68002BD3120A28400BE4752E78752D03F52C2A
:030C7800F52B2237
:0E0FC400D2AF758911C2A9D28CD2ABD28E22C7
:100D7900D2A37F967E00120EFC75B0FF75A0FF7599
:100D890090FF7580FF120BD8120D07120FC4120FB6
:100D990088120BD8120BD8300012C200120EAE30D6
:100DA900A303120BD8E5297003120D07120DC8C34E
:0F0DB900E52F940A7480948050DD120B0C80D8C3
:03001B00020E7F53
:0B0E7F00C0E0C0D075D000C000C0076C
:100E8A00758DF8758B30120F560524C3E524949698
:0B0E9A00748094804005752400D20095
:090EA500D007D000D0D0D0E0321B
:10080000EC4D6011E8497017ED33EC3304600DE4F2
:10081000FCFFFEFD22E933E8330470F80209B01250
:10082000097B58046009E4CC248150062850090251
:1008300009BA2840030209B7C0E0EB4A7044B98006
:1008400006D0E0FB0209A6EF4E701CBD8008EBFF4E
:10085000EAFEE9FD80EBE98DF0A4FEE5F00208E98F
:10086000E9CDF9EAFEEBFFEF89F0A4FCE5F0CE89D3
:10087000F0A42EFFE435F0CD89F0A42DFEE435F090
:100880008067EF4E7005BD80D780C3EF8BF0A4ACBE
:10089000F0EE8BF0A42CFCE435F0F8EF8AF0A42CF9
:1008A000E5F038FCE433CB8DF0A42CFCE5F03BF80C
:1008B000EE8AF0A42CFCE5F038F8E433CF89F0A4FC
:1008C0002CFCE5F038CF3400CE89F0A42FFFE5F002
:1008D0003EFEE433C98DF0A42EFEE5F039CD8AF05A
:1008E000A42FFFE5F03EFEE43DFD33D0E0FB5007D2
:1008F0000BBB000F0209BAEC2CFCEF33FFEE33FE0A
:06090000ED33FD02099237
:1009060075F020800E75F010800575F0087D007E6C
:10091600007F003392D530D503120A1AEC3340100B
:10092600EF33FFEE33FEED33FDEC33FCD5F0ED2275
:0E093600E5F0247EA2D513CC92E7CDCEFF22B1
:10094400EDD2E7CD33EC3392D524814006E4FFFEAB
:10095400FDFC22FCE4CFCECDCC24E0501174FF800A
:10096400EDC3CC13CCCD13CDCE13CECF13CF0470A7
:07097400F030D5DE020A1A83
:10097B00E9D2E7C933E833F892D5EDD2E7CD33ECC2
:07098B0033FC5002B2D5223B
:10099200EC30E7100FBF000C0EBE00080DBD0004C6
:1009A2000BEB6014A2D5EB13FCED92E7FD2274FF72
:1009B200FCFDFEFF22E480F8A2D574FF13FC7D80CB
:0309C200E480EFDF
:100C8700020D79E493A3F8E493A34003F68001F2FD
:100C970008DFF48029E493A3F85407240CC8C3336E
:100CA700C4540F4420C8834004F456800146F6DF3D
:100CB700E4800B0102040810204080900FD2E47EEC
:100CC700019360BCA3FF543F30E509541FFEE49332
:100CD700A360010ECF54C025E060A840B8E493A3F9
:100CE700FAE493A3F8E493A3C8C582C8CAC583CA24
:100CF700F0A3C8C582C8CAC583CADFE9DEE780BEDC
:010FDF000011
:1009C500BC000BBE0029EF8DF084FFADF022E4CC16
:1009D500F875F008EF2FFFEE33FEEC33FCEE9DECDF
:1009E500984005FCEE9DFE0FD5F0E9E4CEFD22ED25
:1009F500F8F5F0EE8420D21CFEADF075F008EF2F6F
:100A0500FFED33FD4007985006D5F0F222C398FD5F
:050A15000FD5F0EA22FC
:100E0C00C2D5E830E70FB2D5E4C39BFBE49AFAE411
:100E1C0099F9E498F8EC30E717B2D5120E42120AA1
:100E2C007AE4C39BFBE49AFAE499F9E498F880031A
:100E3C00120A7A30D50DE4C39FFFE49EFEE49DFDBB
:040E4C00E49CFC2204
:0E0A1A00C3E49FFFE49EFEE49DFDE49CFC22ED
:100A2800EB9FF5F0EA9E42F0E99D42F0EC6480C845
:060A380064809845F022E5
:100A3E0075F008758200EF2FFFEE33FECD33CDCC6F
:100A4E0033CCC58233C5829BED9AEC99E5829840F2
:100A5E000CF582EE9BFEED9AFDEC99FC0FD5F0D6CF
:100A6E00E4CEFBE4CDFAE4CCF9A88222B800C1B9F9
:100A7E000059BA002DEC8BF084CFCECDFCE5F0CB37
:100A8E00F97818EF2FFFEE33FEED33FDEC33FCEB70
:100A9E0033FB10D703994004EB99FB0FD8E5E4F92B
:100AAE00FA227818EF2FFFEE33FEED33FDEC33FC18
:100ABE00C933C910D7059BE99A4007EC9BFCE99A0C
:100ACE00F90FD8E0E4C9FAE4CCFB2275F010EF2F51
:100ADE00FFEE33FEED33FDCC33CCC833C810D70751
:100AEE009BEC9AE899400AED9BFDEC9AFCE899F88C
:0E0AFE000FD5F0DAE4CDFBE4CCFAE4C8F9221F
:00000001FF
